:020000040800F2
:1000000000070020410200085F2A0008A12900081B
:100010005D2A000873140008F52D00080000000098
:10002000000000000000000000000000632A00083B
:100030008D14000800000000612A0008A12A0008B1
:100040005B0200085B0200085B0200085B0200081C
:100050005B0200085B0200085B0200085B0200080C
:100060005B0200085B0200085B0200085B020008FC
:100070005B0200085B0200085B0200085B020008EC
:100080005B0200085B0200085B0200085B020008DC
:1000900075140008811400085B0200085B02000868
:1000A0005B0200085B0200085B0200085B020008BC
:1000B0005B0200085B0200085B0200085B020008AC
:1000C0005B0200085B0200085B0200085B0200089C
:1000D0005B0200085B0200085B020008E92D0008D3
:1000E0005B0200085B0200085B0200085B0200087C
:1000F0005B0200085B0200085B0200085B0200086C
:100100005B0200085B0200085B0200085B0200085B
:100110005B0200085B0200085B0200085B0200084B
:100120005B0200085B0200085B0200085B0200083B
:100130005B02000800000000000000005B020008F5
:100140005B0200085B0200085B0200085B0200081B
:100150005B0200085B0200085B0200085B0200080B
:100160005B0200085B0200085B0200085B020008FB
:100170005B0200085B0200080000000000000000B5
:100180005B0200085B02000800F002F800F049F88A
:100190000AA090E8000C82448344AAF10107DA45E2
:1001A00001D100F03EF8AFF2090EBAE80F0013F0EB
:1001B000010F18BFFB1A43F001031847A4300000D9
:1001C000C4300000103A24BF78C878C1FAD852076A
:1001D00024BF30C830C144BF04680C6070470000C1
:1001E0000023002400250026103A28BF78C1FBD840
:1001F000520728BF30C148BF0B607047662902F024
:10020000CB87002070471FB502F091FF00F0F4FB90
:1002100004000020002102F0FDFEE0601FBD10B5CB
:1002200010BD00F0E9FC1146FFF7EDFF02F060FEA3
:1002300000F007FD03B4FFF7F2FF03BC00F04AFD36
:100240000948804709480047FEE7FEE7FEE7FEE76A
:10025000FEE7FEE7FEE7FEE7FEE7FEE704480549A6
:10026000054A064B70470000392B00088901000839
:1002700000010020000700200003002000030020F0
:1002800053EA020C00F069802DE9F04B4FF00006B4
:10029000002B1FBFB3FA83F503FA05F424FA05F621
:1002A0005E4012BF1643B2FA82F502FA05F4C5F1B8
:1002B00020051EBF22FA05FC44EA0C04203556EA4C
:1002C000044C4FEA144418BF641C4FF000084FF070
:1002D0000009904271EB030C39D3002919BFB1FA20
:1002E00081F701FA07F6B0FA80F700FA07F6C7F1CE
:1002F00020071EBF20FA07FC46EA0C062037B6FB93
:10030000F4FCA7EB0507103F07F01F0BCBF120060D
:100310000CFA0BFB2CFA06F644BFB3460026202F3E
:10032000A4BF5E464FF0000B5BEA060C08BF4FF01F
:10033000010B19EB0B09ABFB027C48EB0608C01B59
:1003400006FB02CC0BFB03CC71EB0C01C1E70B46A7
:10035000024641464846BDE8F08B13B54FF0000019
:100360004FF00001AFF30080BDE81C407047000073
:100370000FB41CB5074B06AA7B446946009005984C
:1003800000F021FB0020694600F030FB1CBC5DF84A
:1003900014FB0000710600002DE9F0474FF0000A41
:1003A00089460446C0F820A02046E1688847002816
:1003B00076D0252806D0D4E901219047206A401C38
:1003C0002062F1E7E168204600258847C4F81CA0B8
:1003D00006460027C4F818A02A2E09D0304602F09D
:1003E0007FFD38B304EB8708303EC8F8186019E089
:1003F00059F8041B204604EB87029161E1688847A5
:10040000012F064618D1E069002820DA25F02005E2
:100410001DE0D8F8180000EB800006EB40003038F3
:10042000C8F818002046E1688847064602F058FDE3
:100430000028EED1012F0AD02E2E08D12046E168E7
:1004400088477F1C0646022F45F02005C4DBA069C3
:10045000002803DA404245F00105A061E80701D019
:1004600025F01005B6B1A6F14100192802D82036B2
:1004700045F400654A463146204625604D46FFF763
:10048000BDFE58B1012806D0ED1D25F0070000F192
:10049000080989E704E005F1040985E730468AE7A1
:1004A000206ABDE8F08710B5431C02E010F8011B7C
:1004B00071B18107FAD14FF0013202C88C1A8C4316
:1004C00014EAC211F9D0C01A0A0603D0C01E10BD2A
:1004D000C01A10BD0A0401D0801E10BD0902FCD054
:1004E000401E10BD10B5203AC0F00B80B1E8185086
:1004F000203AA0E81850B1E81850A0E81850BFF40E
:10050000F5AF5FEA027C24BFB1E81850A0E81850AC
:1005100044BF18C918C0BDE810405FEA827C24BF00
:1005200051F8043B40F8043B08BF7047D20728BF8E
:1005300031F8023B48BF11F8012B28BF20F8023BDD
:1005400048BF00F8012B70474FF0000200B513467A
:1005500094469646203922BFA0E80C50A0E80C50E3
:10056000B1F12001BFF4F7AF090728BFA0E80C5094
:1005700048BF0CC05DF804EB890028BF40F8042B8D
:1005800008BF704748BF20F8022B11F0804F18BFFA
:1005900000F8012B704770477047704770472DE98E
:1005A000FF4F0C461E464FF0FF378BB0D2E90001DB
:1005B000DDF860800A908A46C1F30A5505B93D46C8
:1005C000002108464FF00000BAF1000F00F440008F
:1005D00005DA00EB80004FF4400101EA50004FEAD9
:1005E0009059B9F1010F00DDB9460A9850EA4A0066
:1005F0000ED044F61050A5F2FF3545432F14B8F144
:10060000000F1ED07542291E1EDDC9F100021CE03C
:10061000B8F1010F4FF0000001D0302103E0F243A8
:1006200005E02154401CB042FBDB30460022002193
:1006300021540B99C1F80880C1E900200FB0BDE832
:10064000F08FBD1B6D1CDEE74A4600DA694206A842
:1006500000F05CFA06AB93E8070003AB83E8070001
:1006600050460A9900F03DFB8DE80700A0F50050C8
:100670001F3800900398002D0ADD42F21F014A4600
:100680000844002303A90390684600F0A6FD09E092
:10069000A0F500504A461F38002303A9039068467E
:1006A00000F0B0FD8DE807000004000C03D04FF00F
:1006B000FF30410800E01046B8F1000F03D00022DF
:1006C000009215461EE0751E05D400F099F93032EF
:1006D00062556D1EF9D5B3460122084302D00022AF
:1006E0007F1C04E02078302801D100227F1E002AE0
:1006F000099784D01DE0112D07DA00F081F930321E
:1007000062556D1C50EA0102F5D1084302D00098F1
:10071000C8B10EE00021681E05E0235C625C6354F2
:100720002254401E491C8142F7DBAB46A81B401EE9
:100730000990002004F80B000B98099AC0F8088073
:10074000C0E9002B7AE711264FF0000857E72DE9A2
:10075000F04F88460446D21D22F0070191B0D1E93E
:100760000001CDE90A0102F046FB02460B98C00FDA
:1007700001D02D2007E02068810701D52B2002E061
:10078000202101EAC000032A099001D0072A05DBD5
:1007900003464146204600F079F90BE120788006B7
:1007A00001D5E06900E00620B8F1650F814606D06A
:1007B000B8F1660F18D0B8F1670F70D131E00020A2
:1007C000B9F1110F009001DB112301E009F10103E0
:1007D0000AAA01A90CA8FFF7E2FEDDE90C700026C9
:1007E00009F10105834647E001204B4600904FF098
:1007F00000470AAA01A90CA8FFF7D1FEDDE90DB058
:100800000C995D46002610B909F101000D18B9EBED
:10081000050003D4C0F1FF3609F10105A5EB09007D
:100820002BE0B9F1010F01DA4FF001090020B9F115
:10083000110F0090484601DD112300E003460AAA8B
:1008400001A90CA8FFF7ABFEDDE90C704D460026B0
:100850008346207800070AD4AB4500DA5D4601A83C
:10086000012D04DD411911F8011C302907D04F4535
:1008700002DA17F1040F04DA012082460FE06D1E40
:10088000EEE7002F02DCED1B3E4403E0781CA8429B
:1008900000DD7D1CB81B00F1010A4FF000472078F5
:1008A000000703D4AA4501DB4FF0FF3A0021B7F15E
:1008B000004F0DF143088DF8431024D002202B2364
:1008C000002F01DA7F422D230A21021EA0F1010030
:1008D00000DC5FB197FBF1FC97FBF1F201FB1C7CA4
:1008E00017460CF1300C08F801CDEEE7A8F1010035
:1008F00003702188090501D5452100E06521A0F19B
:10090000010800F8011C09980FA9A1EB0807FF1DB9
:1009100000B10120411901EBEA70A1693844081ABD
:10092000401EA0612078C00602D42046AFF30080AC
:10093000099828B1D4E901219047206A401C20621F
:100940002078C00622D52046AFF300801EE0002E9E
:1009500004DBB34502DD01A8805D00E03020D4E96E
:1009600001219047206A401C2062761CAAF10100F8
:100970005FEA000A0AD100F03FF8C0680168405CF5
:10098000D4E901219047206A401C2062281EA5F16D
:100990000105DCDC07E0D4E9012118F8010B9047E0
:1009A000206A401C2062381EA7F10107F3DC2046B4
:1009B000AFF30080032011B041E6000001694A1C3A
:1009C00002610878704700B58FB0CDE90131002190
:1009D000059105497944CDE9031011466846FFF7B2
:1009E000DBFC0FB000BD0000E5FFFFFF0A6802F866
:1009F000010B0A607047000000487047BC000020EF
:100A000030B5B0F10A024FEA900E71F100034EEAE0
:100A1000817EB0EB0E0061EB91014FEA101E4EEAB1
:100A2000017E10EB0E0041EB11114FEA102E4EEA41
:100A3000016E10EB0E0041EB11214FEA104E4EEA11
:100A4000014E10EB0E0041EB1141401841F1000145
:100A50004FEAD00040EA41704FEAD10110EB800527
:100A60004FEA810444EA907444EB01046D1944EBAD
:100A70000404521BA3414FF0000348BF0A3200D5C3
:100A800030BD401C41F1000130BD00002DE9F041B6
:100A90001F46044603260168072A01F4006004DBB0
:100AA00008B116A505E016A503E008B115A500E0FC
:100AB00015A521F010002060A069C01EA0610FB133
:100AC000401EA0612046AFF300804FB1D4E9012160
:100AD00038469047206A401C2062C01C206206E015
:100AE000206AFAE7D4E9012115F8010B9047761E38
:100AF000F8D22046AFF30080BDE8F0814E414E00B1
:100B00006E616E00494E4600696E66002DE9F04741
:100B1000814616468AB0354878440DC88DE80D00E8
:100B200032487844801C03AC0DC884E80D0041F6BF
:100B30009B300844372190FBF1F290FBF1F5A5F1D1
:100B4000800501FB12041B3C02D56442012000E039
:100B50000020DFF898A080460027FA44AAF1BE0AD8
:100B60000EE0E0070AD03246684607EB4701012352
:100B70000AEB810100F046FB8DE8070064107F1C42
:100B8000002CEED1194F7F44AE3F19E0E80715D095
:100B900007EB04100DF1180A90E80E008AE80E0029
:100BA000C068F04201D1981908903246012306A985
:100BB00003A800F027FB03AB83E807006D10641C5B
:100BC000002DE3D14FF0010332466946B8F1000F22
:100BD00003A802D000F001FB01E000F013FBC9E91B
:100BE0000001C9F808200AB0BDE8F0872C270000F2
:100BF000004870479C0000207546FFF7F9FFAE469D
:100C000005006946534620F00700854618B020B518
:100C1000FFF724FBBDE820404FF000064FF000072F
:100C20004FF000084FF0000B21F00701AC46ACE894
:100C3000C009ACE8C009ACE8C009ACE8C0098D4601
:100C4000704710B50446AFF300802046BDE8104061
:100C5000FFF7F0BA4FF0013C50F8042B51F8043B79
:100C60009A4221D1A2EB0C03934313EACC1317D180
:100C700050F8042B51F8043B9A4215D1A2EB0C0317
:100C8000934313EACC130BD150F8042B51F8043BD7
:100C90009A4209D1A2EB0C03934313EACC13DBD0A5
:100CA0004FF00000704700BFD01A01BAB1FA81F1CD
:100CB00001F0180122FA01F0CB40C1F12001DBB2B2
:100CC000C0B2C01A2CFA01F3D11A914311EAC31130
:100CD000E6D1704701491820ABBEFEE726000200AE
:100CE00070475FEA400C08BF91F0000F4FEA8C2379
:100CF0004FEAC12243EA51514FEA1C5018BF00F598
:100D0000F0404FEA300018BF41F000415FEA6C5CF0
:100D100000F02980BCF1FF3F08BF40F080407047E1
:100D2000130C06BF12044FF0100C4FF0000C130E02
:100D300004BF12020CF1080C130F04BF12010CF1D6
:100D4000040C930F04BF92000CF1020CD30F04BFEC
:100D500052000CF1010C11464FF00002A0F11F00EF
:100D6000A0EB0C00704711F0004F08BF704731F046
:100D700000413FF4D5AF0B0C06BF09044FF0100C37
:100D80004FF0000C0B0E04BF09020CF1080C0B0F06
:100D900004BF09010CF1040C8B0F04BF89000CF196
:100DA000020CCB0F04BF49000CF1010CCCF1200365
:100DB000A0EB0C0022FA03F302FA0CF241EA030161
:100DC00000F10100704720F07F4C80EA030023F01F
:100DD0007F47ACEB070303F57C5300F0004003F1C1
:100DE000FF032DE980494FEA154B09B44FEA14433C
:100DF00025EA0B4E24EA03480FF2042606EB1327DC
:100E000049083E785FEA320203FB0667C7F5000730
:100E100007FB06F64FEA54374FEAD64606F10206BC
:100E200007FB066CCCF1005C4FEA1C472CEA074C30
:100E300007FB06F40CFB06F504EB15464FEA961685
:100E400034BF00204FF000404FEAD13706FB07FCCB
:100E50004FEA1C4C0CFB0BF7D21B03FB0CF761EBAE
:100E600007010CFB0EF7B0EB074072EB17420CFBCF
:100E700008F734BFA2EB0742B2EB074261EB174120
:100E80004FEA0C444FEA910706FB07FC4FEA1C4C63
:100E90000CFB0BF7B0EBC74072EB573203FB0CF7C0
:100EA00034BFA2EBC742B2EBC74261EB57310CFB38
:100EB0000EF7B0EBC70072EB57720CFB08F734BFAC
:100EC000A2EBC702B2EBC70261EB5771039F4FEA77
:100ED000816141EA921104EBCC044FEAD1374FEA29
:100EE000826206FB07FC42EA90124FEA80604FEAFA
:100EF0001C4C0CFB0BF7D21B03FB0CF761EB07013F
:100F00000CFB0EF7B0EB074072EB17420CFB08F737
:100F100034BFA2EB0742B2EB074261EB17414FEA45
:100F20008C554FEA910704EB9C2406FB07FC4FEA23
:100F30001C4C0CFB0BF7B0EBC74072EB573203FBBA
:100F40000CF734BFA2EBC742B2EBC74261EB57319B
:100F50000CFB0EF7B0EBC70072EB57720CFB08F7F7
:100F600034BFA2EBC702B2EBC70261EB577115EBBE
:100F70004C254FEA816141EA92114FEA82624FEAC1
:100F8000D13742EA901206FB07FC44F100044FEA15
:100F900080604FEA1C4C0CFB0BF7D21B03FB0CF7D9
:100FA00061EB07010CFB0EF7B0EB074072EB174249
:100FB0000CFB08F734BFA2EB0742B2EB074261EB30
:100FC000174115EB1C154FEA813141EA92414FEA76
:100FD000823242EA90424FEA80304FEA0C7644F186
:100FE000000448EA03434EEA0B484FF0000EB2EB10
:100FF000080C71EB030724BF624639464EEB0E0E18
:101000004FF0000B0018524149414BEB0B0BB2EB78
:10101000080C71EB03077BF1000B24BF62463946D5
:101020004EEB0E0E4FF0000B0018524149414BEBB6
:101030000B0BB2EB080C71EB03077BF1000B24BF29
:10104000624639464EEB0E0E51EA020718BF46F0D3
:10105000010616EB0E7655F1000254F1000103D59E
:10106000BDE88901BDE80088BDE88901BDE8004808
:10107000B619524141EB0101A3F101037047808091
:101080007F7E7D7C7B7A79787776767574737271E2
:1010900071706F6E6E6D6C6C6B6A6A69686867669A
:1010A00066656464636362616160605F5F5E5E5D2C
:1010B0005D5C5C5B5B5A5A595958585757565655A0
:1010C00055555454535352525251515050504F4F02
:1010D0004F4E4E4D4D4D4C4C4C4B4B4B4A4A4A4952
:1010E0004949484848474747474646464545454495
:1010F0004444444343434342424242414141002B22
:101100009C4630D477002BD01CB54FEA370703B488
:101110004FF010004FF01001BAF1000F06D0BCF1F3
:10112000000FDCBF40F0080040F008014FF0000065
:101130000FBCBDE810400BF1010BBBF1010F08BF64
:101140005FEA170722BF12F1010211F101014FF00E
:10115000004143F1000300F0004043EA0000704703
:10116000F9D35708D0E746EA064613F1400F4FEA95
:1011700016461FDD13F1200FDFBF16430A4600217C
:1011800020335B42BED0C3F1200746EA064602FA8E
:1011900007F74FEA164646EA0706C3F1200722FA88
:1011A00003F201FA07F721FA03F14FF0000342EAD4
:1011B0000702A7E746EA020646EA06464FEA16464F
:1011C00046EA0106BCBF46EA0646360C4FF000036D
:1011D0004FF000024FF0000194E72DE9804C9A4651
:1011E000934670B491E8380007C831EA400C48BF14
:1011F00034EA430C03D5FFF7E6FDFFF780FFF0BCB0
:10120000BDE8008C2DE9804C9A46934670B491E875
:10121000380007C810F0804F08BF13F0804F03D18B
:1012200000F005F8FFF76BFFF0BCBDE8008C20F084
:101230007F4780EA030023F07F4C07EB0C03A3F504
:101240007C5300F00040A3F1FE0392F0000F00F089
:10125000B38095F0000F00F077802DE901494FEA47
:1012600011404FEA144621EA004800FB06FC24EA3C
:10127000064708FB06F607FB08F800FB07F718EB24
:1012800006484CEB164C4FEA124B18EB07484FEA56
:1012900015464CEB174022EA0B4E0BFB06FC25EAE9
:1012A00006470EFB06F607FB0EFE0BFB07F71EEBD1
:1012B000064E4CEB164C4FF000061EEB074E4CEB67
:1012C000174B18EB0B0840F1000018EB0E0B58EB16
:1012D000000840F100008F1A4FF000013CBFC943E5
:1012E000661B14BFB5EB040C00213CBFC943F61BC1
:1012F0004FEA17444EEA8E0E27EA04454FEA1C4790
:1013000004FB07622CEA074C05FB07F70CFB05F60C
:1013100004FB0CFC16EB074642EB174216EB0C469F
:1013200042EB1C421BEB060658EB0202414146EA27
:101330009E0601D5BDE80189B619524141EB010174
:10134000A3F10103BDE801894FEA14454FEA1147B3
:1013500024EA054621EA074C05FB07F406FB07F7DC
:101360000CFB06F105FB0CFC11EB074144EB1744A9
:101370004FEA124711EB0C4144EB1C4422EA074CA4
:1013800005FB07F206FB07F70CFB06F605FB0CFC5A
:1013900016EB074642EB174216EB0C4642EB1C4598
:1013A0006A1854F1000148BF7047B619524141EB29
:1013B0000101A3F10103704795F0000F37D04FEA08
:1013C00011424FEA144721EA024624EA074C02FB85
:1013D00007F106FB07F70CFB06F402FB0CFC14EB11
:1013E000074441EB17414FEA154714EB0C4441EB1E
:1013F0001C4125EA074C02FB07F506FB07F70CFB2F
:1014000006F602FB0CFC16EB074645EB174516EB00
:101410000C4645EB1C42121951F1000148BF7047C0
:10142000B619524141EB0101A3F1010370474FEAA4
:1014300014454FEA114724EA054621EA074C05FB0B
:1014400007F106FB07F70CFB06F24FF0000605FB61
:101450000CFC12EB074241EB174112EB0C4251EB33
:101460001C4148BF7047921841EB0101A3F10103F1
:101470007047FEE7014800F0A8B900002C000020EA
:10148000014800F0A2B900002C00002070470000C5
:1014900000B58BB0002001210490CDE90810CDE902
:1014A000060105900090019002900390694607485C
:1014B00000F08AF808B172B6FEE7044800F080FB3D
:1014C0000221024800F006F80BB000BD2C000020FD
:1014D00072B6FEE790F82020012A07D0022A05D034
:1014E000416A41F4802141620120704700684269ED
:1014F0000A43426100207047F0B590F8205004681C
:10150000A468012D05D0022D03D0416A41F4802149
:1015100057E014F0406F01D1E5004FD5C4F30164EA
:101520000125A5401D608D684FF4C0739DB1CE6844
:1015300035434E6845EAC605066803EB0417F551C6
:101540004FF4C275076805EB04150E697E51097DDD
:10155000012905D009E00E88CD6845EA4655EBE73C
:1015600001684E5946F480764E511179D5795679F5
:1015700041EA056195792D0445EA062529434FF492
:10158000C676056806EB0416A9511178D57841EAAC
:101590000561957852782D0445EA022211434FF4F3
:1015A000C475026805EB04155151006803EB041182
:1015B000425842F0010242500020F0BD416A41F41D
:1015C000001141620120F0BD10B590F82020012AE1
:1015D00007D0022A05D0416A41F4802141620120EE
:1015E00010BD3B48D0F8002242F00102C0F80022B2
:1015F000D0F8002222F47C52C0F80022D0F8002259
:101600004B6A42EA0322C0F800220A7D02F01F035F
:1016100001229A40D0F81C329343C0F81C32CB69A7
:10162000B3B9D0F80C329343C0F80C328C894B68B4
:1016300064F31F434C6900EBC404C4F840320C89C6
:101640000B6864F31F434C6900EBC404C4F84432D4
:10165000CB69012B16D1D0F80C321343C0F80C32F1
:101660000C884B6864F31F434C6900EBC404C4F856
:1016700040320C89CB6864F31F434C6900EBC4040F
:10168000C4F844328B69002BD0F804320ED01343D7
:10169000C0F804320B69002BD0F8143208D0134381
:1016A000C0F81432096A012904D008E09343EFE737
:1016B0009343F5E7D0F81C121143C0F81C12D0F880
:1016C000001221F00101C0F80012002010BD00003E
:1016D00000640040704770B590F82040012C05D0A0
:1016E000022C03D0416A41F4802128E0046809B348
:1016F0002469A40720D04FF4D874056804EB0114C2
:101700002D5915F00405956005682D591AD0ED087E
:10171000556005682C5904F00204D4604FF4DA7463
:10172000056804EB01142E5906F00F06082E0CD3A1
:1017300008250DE0E468DCE7416A41F400114162EC
:10174000012070BD6D0D1560E3E72D5905F00F0503
:10175000156105682D59C5F30725956105682C5954
:10176000240C54614FF4DC72046802EB0112A4589B
:101770001C700468A458240A5C700468A458240CE3
:101780009C700468A258120EDA704FF4DE7204687E
:1017900002EB0112A4581C710468A458240A5C715D
:1017A0000468A458240C9C710468A258120EDA71C3
:1017B000006829B1016941F020010161002070BD7C
:1017C000C16841F02001C160F8E72DE9F05F0546EE
:1017D000006800244669D0F804908768D0F80CB0FF
:1017E000D0F810A0D0F81880F10748D0F90714D02D
:1017F00001218160B80703D5284600F00EFA0CE0FD
:10180000780702D54FF4006407E0380702D54FF49B
:10181000805402E0284600F0FFF9F80516D5296843
:101820004FF480708860B80503D5284600F0F7F9BA
:101830000CE0780502D544F4005407E0380502D5E1
:1018400044F4804402E0284600F0E8F9F80316D595
:1018500029684FF480308860B80303D5284600F02B
:10186000E0F90CE0780302D544F4004407E03803C3
:1018700002D544F4803402E0284600F0D1F9300764
:1018800007D55FEACB6004D52968102044F40074C2
:10189000C86070074FF0080707D55FEA0B7004D5E2
:1018A0002868C760284600F061F9B00706D52868A7
:1018B000C068800702D0284600F05AF9700607D5A4
:1018C0005FEACA6004D52968102044F48064086186
:1018D000B00607D55FEA0A7004D528680761284674
:1018E00000F06AF9F00606D528680069800702D082
:1018F000284600F062F9B00308D55FEAC96005D553
:10190000296810204860284600F058F9F00307D5F0
:101910005FEA097004D528684760284600F082F91C
:10192000300446D55FEA497040D5F00504D55FEA3A
:10193000C87001D044F00104B00504D55FEA887096
:1019400001D544F00204700504D55FEA487001D562
:1019500044F00404300529D518F0700F26D008F0A3
:101960007000402815D006DC102809D020280AD0A5
:10197000302816D10AE050280ED0602811D10EE090
:1019800044F008040DE044F010040AE044F02004A0
:1019900007E044F0400404E044F0800401E044F433
:1019A00080742868816921F07001816129680420B0
:1019B0004860002C05D0686A204368622846FFF71B
:1019C00089FEBDE8F09F70B5040003D094F82000B4
:1019D00010B104E0012070BD204600F081F82068BD
:1019E000016841F00101016000F082FA0546052618
:1019F00004E000F07DFA401B0A2811D820684068F6
:101A0000C007F6D02068016821F00201016000F0F3
:101A10006FFA05460BE000F06BFA401B0A2806D966
:101A2000606A40F40030606284F82060D2E7206889
:101A300040688007EFD4207E0128206801683DD0EF
:101A400021F080010160607E01282068016838D0A3
:101A500021F040010160A07E01282068016833D098
:101A600021F020010160E07E0128206801682ED06D
:101A700041F010010160207F01282068016829D011
:101A800021F008010160607F01282068016824D0EE
:101A900021F004010160D4E902010843D4E90412F1
:101AA000114308436168491E08432168C86100204A
:101AB0006062012084F82000002070BD41F08001A8
:101AC000C0E741F04001C5E741F02001CAE721F03D
:101AD0001001CFE741F00801D4E741F00401D9E754
:101AE00010B586B0044614216846FEF72DFD1C494A
:101AF0002068884231D11B480021026842F0007200
:101B00000260006800F00070059016481038026806
:101B100042F001020260006800F0010005904FF4FD
:101B2000C05000900220CDE901010320039009205C
:101B3000049069460C4800F0E3F800221146142096
:101B400000F044FA142000F033FA00221146152068
:101B500000F03CFA152000F02BFA06B010BD000092
:101B6000006400404038024000000240704700001E
:101B700010B504460E488AB0844211D107AB6A46BC
:101B800000212046FFF7A7FD50B9BDF81E0040BA5E
:101B900001B200EE101A0748B8EEC00A80ED030A41
:101BA0000AB02046BDE810400221FFF793BC0000B8
:101BB0002C00002000000020704770477047000094
:101BC00070B5044690F82000012804D0606A40F403
:101BD0000020606218E0022084F82000206801687C
:101BE00021F00101016000F083F905460EE000BF1D
:101BF00000F07EF9401B0A2808D9606A40F40030E2
:101C00006062052084F82000012070BD20684068D3
:101C1000C007EDD1606270BD704770477047704774
:101C20007047704770472DE9F0410446876D00F01A
:101C30005FF9064694F835000025022806D080207A
:101C4000606584F834500120BDE8F08120680168A7
:101C500021F0160101602068416921F08001416195
:101C6000206C08B9A06C20B12068016821F008013F
:101C700001602068016821F0010101600CE000F0C2
:101C800037F9801B052807D920206065032084F8D8
:101C9000350084F83450D7E720680068C007EED1DB
:101CA00094F85C103F208840B860012084F835002B
:101CB00084F834500020C7E790F83510022903D08B
:101CC0008021416501207047052180F835100068AA
:101CD000016821F0010101600020704770B50446E1
:101CE00000F006F90546601C02D004480078044460
:101CF00000F0FEF8401BA042FAD370BD1C0000208B
:101D00002DE9F84FDFF8BCA10022012503264FF092
:101D10000F090AF1040BAAF1040E00BF0B6805FAC3
:101D200002F42340A34270D10F7907F00307012F7B
:101D300001D0022F16D187684FEA420806FA08FC44
:101D400027EA0C07D1F80CC00CFA08FC4CEA070C87
:101D5000C0F808C04768A7430C79C4F30014944046
:101D60003C4344600C79E443A4070AD0C4684FEABA
:101D7000420C06FA0CF7BC438F6807FA0CF72743AE
:101D8000C7600C7904F00304022C12D1D40800EBD4
:101D9000840CDCF820405707FF0E09FA07F824EA04
:101DA0000804D1F8108008FA07F848EA0408CCF8CB
:101DB000208004684FEA420C06FA0CF7BC430F7906
:101DC00007F0030707FA0CF7274307604C6814F481
:101DD000403F70D03C4C276847F480472760246818
:101DE00022F0030704F480440094384C07EB040C01
:101DF000DCF8084897074FEA177809FA08F7BC4358
:101E0000334FB84202D1002724E054E0314FB842AA
:101E100001D101271EE0304FB84201D1022719E05D
:101E20002E4FB84201D1032714E02D4FB84201D103
:101E300004270FE02B4FB84201D105270AE02A4FB3
:101E4000B84201D1062705E0284FB84201D1072743
:101E500000E0082707FA08F72743CCF80878DAF8F3
:101E600000405746D1F804C09C435FEACC2C00D513
:101E70001C433C60DBF800405F46D1F804C09C4343
:101E80005FEA8C2C00D51C433C60DEF800407746AE
:101E9000D1F804C09C435FEA8C3C00D51C433C60F5
:101EA000084F083F3C68D1F804C09C435FEACC3C33
:101EB00000D51C433C60521C102AFFF42FAFBDE834
:101EC000F88F0000083C01404438024000300140D7
:101ED000000002400004024000080240000C0240E2
:101EE000001002400014024000180240001C024092
:101EF00001488068704700001C000020024881688B
:101F000002781144816070471C0000200B4810B516
:101F1000016841F400710160016841F48061016071
:101F2000016841F480710160032000F06FF80F2018
:101F300000F006F800F024F8002010BD003C02403C
:101F400070B50D4D04464FF47A712878B1FBF0F06E
:101F50000A490968B1FBF0F000F00AFB48B9102CFF
:101F600007D200222146501E00F030F800206C609D
:101F700070BD012070BD00001C0000202800002062
:101F80000A4808B5016841F480410160006800F426
:101F9000804000900548001F016841F080510160B9
:101FA000006800F08050009008BD000044380240F6
:101FB000002809DB00F01F02012191404009800048
:101FC00000F1E020C0F8001170470000F0B40E4BA3
:101FD0001B680C46C3F30223C3F10705042D00D987
:101FE0000425191D072901D2002300E0DB1E01266C
:101FF00006FA05F1491E214099409E40761E164082
:102000003143F0BC00F00FBF0CED00E0064900F0DA
:10201000070208684FF6FF03184040EA0220034A0F
:1020200010430860704700000CED00E00000FA0566
:102030002DE9F0470E46050065D0DFF81481D8F889
:102040000000F7B200F00700B04207D288F8007035
:10205000D8F8000000F00700B04254D128683D4C89
:10206000810712D5400703D5206840F4E050206076
:102070002878000703D5206840F46040206020687D
:10208000A96820F0F000084320602878C0072DD010
:10209000304968680839012812D0022813D0032873
:1020A00011D00968890700292DDA216821F0030180
:1020B00001432160FFF71CFF814641F2883A0EE0A0
:1020C00009688903EFE709688901ECE7FFF710FF6A
:1020D000A0EB0901514502D90320BDE8F087206833
:1020E000696800F00C00B0EB810FEFD1D8F8001058
:1020F000404601F00701B14207D90770006800F0BF
:102100000700B04201D00120E7E72878400705D555
:102110002068E96820F4E050084320602878000730
:1021200006D52068296920F4604040EAC10020609B
:1021300000F038F82168084AC1F30311515CC84027
:102140000649086006480068FFF7FAFE0020C4E769
:10215000003C024008380240B4310008280000204A
:10216000200000200448054900680968044AC1F3BA
:102170008221515CC8407047280000200838024086
:10218000C43100080448054900680968044AC1F3DD
:102190004231515CC8407047280000200838024096
:1021A000C4310008154810B5006810F00C0214483E
:1021B00013D04110042A0FD0082A0ED10F4C241F2F
:1021C0002268236802F03F025B0207D52068C0F353
:1021D0008810A0FB010106E0084610BD2168C1F38C
:1021E0008811A1FB00010023FEF74AF82168C1F322
:1021F0000141491C4900B0FBF1F010BD0838024014
:102200000024F4002DE9F84F04006ED02078DFF8A8
:102210004C93C007A9F104054AD009F104000168F4
:10222000C1F38101012908D00068C0F381000228B0
:102230000AD1D9F80000400206D52868800337D5B6
:1022400060680028E1D033E06068B0F5803F10D0CE
:10225000B0F5A02F286810D020F4803028602868BE
:1022600020F4802028606068A8B1FFF741FE064690
:102270000DE0286840F48030F4E740F480202860C6
:10228000F7E700BFFFF734FE801B642873D8286887
:102290008003F7D50CE0FFF72BFE064605E000BFF4
:1022A000FFF726FE801B6428F0D828688003F7D447
:1022B0002078DFF8AC8280074FF0000A3ED5A748AF
:1022C000001D016811F00C0F08D00068C0F38100F8
:1022D00002280BD1D9F80000400207D428688007F3
:1022E00016D5E068012800D112E033E1E068B8B10A
:1022F0000120C8F80000FFF7FBFD064605E000BF1F
:10230000FFF7F6FD801B0228C0D828688007F7D5A4
:102310002868216920F0F80040EAC10028600DE03B
:10232000C8F800A0FFF7E4FD064604E0FFF7E0FD73
:10233000801B02281FD828688007F7D42078000760
:1023400022D5864F87486169703771B101210160DC
:10235000FFF7CEFD064604E0FFF7CAFD801B02280A
:1023600009D838688007F7D50EE0C0F800A0FFF75D
:10237000BFFD064605E082E0FFF7BAFD801B02289C
:102380007DD838688007F7D42078400768D5DFF813
:10239000CCB100270BF13C0BDBF80000C0000BD4E4
:1023A000DBF8001041F08051CBF80010DBF80000A2
:1023B000012700F0805000906B4E3068C00510D4AB
:1023C000306840F480703060FFF792FD009005E0C7
:1023D000FFF78EFD0099401A022850D83068C005DA
:1023E000F6D55E4EA0686C3601280FD005283068FF
:1023F00010D020F001003060306820F00400306020
:10240000A068B8B1FFF774FD00900FE0306840F0AD
:102410000100F4E740F004003060F7E7FFF768FDE3
:102420000099411A41F28830814266D830688007AD
:10243000F4D50EE0FFF75CFD009007E0FFF758FDD4
:102440000099411A41F28830814256D8306880079D
:10245000F4D42FB1DBF8001021F08051CBF800103C
:10246000A069C8B33D49091D0968C1F3810102296A
:102470004AD00228504607D0C8F8600000E03CE08F
:10248000FFF736FD04463BE04746C8F86000FFF71B
:102490002FFD064605E000BFFFF72AFD801B02283E
:1024A0002BD828688001F7D4D4E907010843A16A32
:1024B0002E4A490802EB0141626A41EA821108434F
:1024C00094F82C1040EA0161C9F800100120386628
:1024D000FFF70EFD044606E03EE000BFFFF708FDF3
:1024E000001B022809D828688001F7D534E000BF16
:1024F000FFF7FEFC001B022802D90320BDE8F88F7D
:1025000028688001F4D427E00128F7D0D9F800002A
:10251000E26900F4800191421CD1226A00F03F017F
:10252000914217D147F6C071626A0140B1EB821F38
:1025300010D1A26A4FF0FF3300F4403103EB520296
:10254000B1EB024F06D194F82C1000F07060B0EBA4
:10255000016F01D00120D1E70020CFE7043802400D
:1025600000004742800E4742007000400000FFFF1D
:1025700010B5401EB0F1807F01D3012010BD4FF097
:10258000E02460610F21601700F04DFC0020A06185
:1025900007202061002010BD70477047F8B5016822
:1025A00004460868CA684B6910F00F0F4FF0000529
:1025B00059D003F0010602F49077374365D0C10784
:1025C00005D0D10503D5616C41F00101616441077B
:1025D00005D5D90703D0616C41F002016164810720
:1025E00005D5D90703D0616C41F00401616401078E
:1025F00007D502F02001314303D0616C41F008019E
:102600006164616C00293AD0800604D5900602D539
:10261000204600F0C7FA20684069616CC0F3801062
:10262000090700D460B3204600F095FA206840699D
:10263000400621D52068143050E8001F21F04001E9
:1026400040E80012002AF5D1E06BA8B1724901659B
:10265000E06BFFF731FB002811D0E06B016D01B09A
:10266000BDE8F040084783060FD593060DD52046F8
:10267000BDE8F84000F096BA2046FFF78EFFF8BD9F
:102680002046FFF78AFF6564F8BD266B2023012EE4
:102690007ED1C6067CD5D6067AD5086848680090F3
:1026A00048694FF0020640064DD5E26B106840685D
:1026B0004FF480770004000C3AD0A18D814237D9C5
:1026C000E085D069B8422DD020680C3050E8001F5A
:1026D00021F4807140E80012002AF5D120681430FE
:1026E00050E8001F21F0010140E80012002AF5D156
:1026F0002068143050E8001F21F0400140E800122B
:10270000002AF5D184F84230256320680C3050E867
:10271000001F21F0100140E80012002AF5D1E06B03
:10272000FFF781FA6663A08DE18D401A81B206E061
:10273000A18D8142A8D1D069B842A5D16663204657
:10274000FFF72AFFF8BDA08DE18D401A81B2E08D20
:102750000028F7D00029F5D020680C3050E8002F71
:1027600022F4907240E80027002FF5D12068143041
:1027700050E8002F22F0010240E80027002FF5D199
:1027800084F84230256320680C3050E8002F00E0C8
:1027900006E022F0100240E80023002BF3D1CDE741
:1027A00005062BD5150629D594F841002128C9D155
:1027B000A068B0F5805F01D12069B0B1206A411CEA
:1027C0002162216800784860E08C401E0004000C03
:1027D000E084B7D12068C16821F08001C160206821
:1027E000C16841F04001C160F8BD206A0088C0F3B3
:1027F00008004860206A801C2062E5E74006F3D5A7
:102800005006F1D5CA68204622F04002CA6084F81A
:10281000413000F0C4F8F8BD492B000870B5040041
:1028200004D094F84100002510B106E0012070BDED
:1028300084F84050204600F023F8242084F841001A
:102840002068C16821F40051C160204600F00CFAF4
:102850002068016921F4904101612068416921F0FB
:102860002A0141612068C16841F40051C16065647A
:10287000202084F8410084F842006563002070BD88
:1028800010B586B0044614216846FDF75DFE184970
:102890002068884229D117480021026842F480222A
:1028A0000260006800F48020059012481038026829
:1028B00042F002020260006800F0020005904FF44E
:1028C000406000900220CDE9010103200390072021
:1028D000049069460848FFF713FA002211462720A2
:1028E000FFF774FB2720FFF763FB06B010BD000065
:1028F00000480040403802400004024070472DE983
:10290000F843044690F84100984616460D462028A4
:1029100002D00220BDE8F88385B17EB1002060645A
:10292000212084F84100FFF7E3FAA6848146E6847B
:10293000A0682027B0F5805F02D003E00120E9E71E
:10294000206910B12E4600250EE000260CE0802103
:10295000204600F00FFAA8B9C6B116F8010B21689D
:102960004860E08C401EE084E08C4B464FF0000253
:10297000CDF800800028EAD14FF04001204600F059
:10298000F9F940B184F841700320C3E735F8020B30
:10299000C0F30800E3E784F841700020BAE770470D
:1029A000FEE700000F4810B50D49016003214160AA
:1029B00000214FF400228160C0E903124FF440125D
:1029C0004261017641768176C17601774177FEF7E3
:1029D000FAFF002803D0BDE81040FEF779BD10BD16
:1029E000006400402C0000200D4808B5016841F04B
:1029F00080010160016801F080010091016841F0EF
:102A000002010160016801F002010091016841F0DA
:102A100001010160006800F00100009008BD0000A5
:102A2000303802400C4810B50A4901604FF4165185
:102A30004160002181600C22C160C0E90412816103
:102A4000C161FFF7EBFE002803D0BDE81040FEF7A0
:102A50003FBD10BD0048004054000020FEE7FEE7E7
:102A60007047704700B589B0002106910791010AAF
:102A70008DF81A108DF81B00182207496846FDF7DB
:102A800031FD0120089008AB06AA69460348FEF70D
:102A900033FD09B000BD00009C3100082C0000206F
:102AA000FFF72CBA30B593B030216846FDF74CFDE6
:102AB00014210CA8FDF748FD1D480025016841F0D0
:102AC00080510160006800F0805011901948016841
:102AD00041F4804101600068022400F480401190BC
:102AE00001200090000401908001CDE9064008AA71
:102AF0000420A82182E813000B906846FFF782FBB0
:102B000008B172B6FEE70CA90F2081E831004FF43E
:102B1000A0500F904FF48050109005210CA8FFF7A3
:102B200087FA002801D072B6FEE713B030BD00006E
:102B300040380240007000400248016841F47001D2
:102B40000160704788ED00E010B5806B0021C18501
:102B5000FFF723FD10BD01680C3151E8002F22F46E
:102B6000907241E80023002BF5D10168143151E83F
:102B7000002F22F0010241E80023002BF5D1016B68
:102B8000012909D101680C3151E8002F22F010020F
:102B900041E80023002BF5D1202180F842100021CC
:102BA0000163704708B590F84210222901D0022035
:102BB00008BD82684FF480539A4201D1016921B166
:102BC000816A9A421BD04AB10AE00268816A52685F
:102BD000C2F308020A80816A891C08E0026972B1A6
:102BE0000268526802F07F020A70816A491C8162A1
:102BF000C18D491E0904090CC18503D01BE0026880
:102C00005268F1E70168CA6822F02002CA600168D0
:102C1000CA6822F48072CA6001684A6922F001021F
:102C20004A61202180F8421000214163026B012A91
:102C300003D0FFF763FE002008BD016301680C317B
:102C400051E8002F22F0100241E80023002BF5D1BB
:102C500001680A68D20602D50A6849680091818D28
:102C6000FFF79AFCE7E7000070B5044600680169C9
:102C7000E26821F44051114301612169A068E269D1
:102C800008436169114308432168CA6849F20C632B
:102C90009A430243CA6020684169A26921F44071E5
:102CA0001143416131492068884202D0304988424D
:102CB00002D1FFF767FA01E0FFF754FAE269002357
:102CC000192164253226B2F5004F626828D0A0FB96
:102CD0000101930F9200FDF7D3FA0146B0FBF5F026
:102CE0006FF01802504301EB800006EB0010B0FBC0
:102CF000F5F000F0F002B1FBF5F002EB0012B1FBD1
:102D0000F5F06FF01803584301EB800006EB00105C
:102D1000B0FBF5F000F00F0021681044886070BD32
:102D2000A0FB010192185B41FDF7AAFA0146B0FB36
:102D3000F5F00201B1FBF5F06FF01803584301EB19
:102D4000800006EBC000B0FBF5F000F0F80002EBED
:102D50004002B1FBF5F0584301EB800006EBC000E8
:102D6000B0FBF5F000F00700D6E7000000100140CE
:102D7000001401402DE9F843984617460D460446D5
:102D8000089E24E0701C22D0FFF7B2F8A0EB0800E8
:102D9000B0421AD8CEB12068C168490717D5802D36
:102DA00015D0402D13D00168C94309070FD401681D
:102DB0000025406800902046FFF7CDFE08206064A3
:102DC00084F840500120BDE8F8830320FBE7206829
:102DD000006835EA000004D00020B842D2D00020BC
:102DE000F1E70120F9E700000148FFF7D7BB000039
:102DF00054000020FEE703B401984100009850EA17
:102E0000C12018BF04204A0D18BF40F0010040F255
:102E1000FF72B2EB515F08BF40F00200012808BF0B
:102E2000052002B070470907090E002804DB00F1F5
:102E3000E02080F80014704700F00F0000F1E0205F
:102E400080F8141D704710B52DED028BB0EE408A4E
:102E500018EE100A00F070F901EE100A18EE100AD0
:102E6000B7EE000A78EE410A10F0004F4FF07F40B5
:102E700010EE901A12D0B1F13F4F24BF10EE901A0D
:102E8000B0EB410F12D210EE901AB1F17C5F1CDD55
:102E900010EE901AB0EB410F17D314E0B1F13F4F91
:102EA00007D910EE901AB0EB410F02D331EE401A61
:102EB0000BE010EE901AB1F17C5F06DB10EE901A79
:102EC000B0EB410F01D331EE001A18EE100ABDEC41
:102ED000028B11EE101A61F31E0000EE100A10BDF5
:102EE00030380A2801D201207047002070470000C6
:102EF0002DED068B92B0FFF709F8FFF7D3FDFFF732
:102F000073FDFFF74FFDFFF78DFDFEF7C1FADFED13
:102F1000349ADFED348ADFF8D090DFF8D0A0344C5B
:102F2000B3EE0EAA4FF47A7B3220FEF7D7FE94ED73
:102F3000039A39EEC98A84ED048A94ED010A08EEF9
:102F4000280A84ED010A94ED020A38EE400AC0EE28
:102F5000280A28EE0A0A10EE100AC4ED050A84EDCC
:102F6000060A84ED028A00F071F80746884618EEDA
:102F7000100A00F06BF805460E4619EE100A00F034
:102F800065F841EC100B8DE8E00153EC102B19A112
:102F900004A8FDF7EDF904A8FDF785FA82B25B46B7
:102FA00004A91948FFF7ABFCA069484503DD9FED74
:102FB000170A84ED060AA069504502D800EE100AEF
:102FC00003E09FED130A84ED060AFFF73CFFBDEE18
:102FD000C00A10EE100A00B22080FFF743FDA3E7FD
:102FE00000007A45CDCC4C3D00409C4600409CC63C
:102FF00000000020252E32662C20252E32662C2043
:10300000252E32660D0A00005400002000409C4628
:1030100000409CC610B500290AD00878002807D0C7
:1030200005487844FDF716FE002801D0002010BDA9
:103030000248784410BD00005E0200005602000005
:103040000808A0F500114FEA3101704743004FEA2C
:10305000D30C4FEA3C0C43401FBF40070CF16051BA
:1030600013F0FE4F70471CF0006F03D100200CF0EE
:10307000004170470CF0004343EA507010B540EA3D
:10308000CC0000F00EF800BF000000924FEA0001F3
:10309000FFF7D6BF4FF000414FF00000A1F500212F
:1030A00070470EF1020E2EF0030E5EF8044B244220
:1030B00004D44FEA4102B2F17F4F11D84FEA4003E6
:1030C000B3F17F4F0CD80ED14FEAD07CB2F17F4FD5
:1030D0000CEB4C0C0CF1020C08BF4CEBD17C04E067
:1030E0004FF0080C01E04FEAD17C0CEB4C0324FAC2
:1030F00003F404F00704B4F1040C06D20EEB840CC4
:10310000BDE810404CF0010C6047DFE80CF0070808
:1031100002024FF00040A0F5800010BD08464200BA
:1031200018BFD2F1807288BF00F0004010BD4FF090
:103130004070E1EE100A70475FEA400C5FEA1C6CD9
:10314000BCF17F0314D4D3F1170240F31C804FF07D
:10315000010C0CFA02FCACF101030340B3EB5C027E
:1031600020EA030008BF10EA0C0F88BF60447047D4
:10317000B3F1FF3F28BF5FEA002C00F0004088BF9A
:1031800040F07E507047BCF1FF0FB8BF704710B5DC
:10319000FFF787FF40DBB6BEFDF7D9BAFF0100009D
:1031A0000000000000000000000000000800000017
:1031B0000000000000000000000000000102030405
:1031C0000607080900000000010203040240000095
:1031D000000000A00000000005400000000000C842
:1031E000000000000C4000000000409C00000000B7
:1031F000194000000020BCBE000000003440000068
:10320000BFC91B8E00000004B5400000504BCFD05A
:103210006607E2CF010000006C4100003E8251AA27
:10322000DFEEA73401000000D9420000DCB5A0E2C7
:103230003A301F97FFFFFFFFB4450000FD25A0C8EF
:10324000E9A3C14FFFFFFFFFFF3F00000000008028
:1032500000000000FF3F00000000008000000000B0
:103260009C320008000000202C000000C40100086F
:10327000C83200082C000020D4060000E00100083D
:103280001C00000043000000F8FFFFFF0C000000DE
:103290000E0000000F0000002E00000000000000E3
:1032A000000000000000000000000000000000001E
:1032B00000000000000000000100000010000000FD
:0832C000000000000024F400EE
:040000050800018965
:00000001FF
